{
  "_format": "hh-sol-artifact-1",
  "contractName": "Whitelist",
  "sourceName": "contracts/Whitelist.sol",
  "abi": [
    {
      "inputs": [
        {
          "internalType": "uint256",
          "name": "_maxWhitelist",
          "type": "uint256"
        }
      ],
      "stateMutability": "nonpayable",
      "type": "constructor"
    },
    {
      "inputs": [],
      "name": "addToWhitelist",
      "outputs": [],
      "stateMutability": "nonpayable",
      "type": "function"
    },
    {
      "inputs": [],
      "name": "maxWhitelistAddresses",
      "outputs": [
        {
          "internalType": "uint256",
          "name": "",
          "type": "uint256"
        }
      ],
      "stateMutability": "view",
      "type": "function"
    },
    {
      "inputs": [],
      "name": "numberOfWhitelistedAddresses",
      "outputs": [
        {
          "internalType": "uint256",
          "name": "",
          "type": "uint256"
        }
      ],
      "stateMutability": "view",
      "type": "function"
    },
    {
      "inputs": [
        {
          "internalType": "address",
          "name": "",
          "type": "address"
        }
      ],
      "name": "whitelistAddresses",
      "outputs": [
        {
          "internalType": "bool",
          "name": "",
          "type": "bool"
        }
      ],
      "stateMutability": "view",
      "type": "function"
    }
  ],
  "bytecode": "0x608060405234801561001057600080fd5b5060405161059238038061059283398181016040528101906100329190610054565b806000819055505061009e565b60008151905061004e81610087565b92915050565b60006020828403121561006657600080fd5b60006100748482850161003f565b91505092915050565b6000819050919050565b6100908161007d565b811461009b57600080fd5b50565b6104e5806100ad6000396000f3fe608060405234801561001057600080fd5b506004361061004c5760003560e01c806355aee5ef14610051578063598963661461006f57806369ddd67d14610079578063d47ac0f4146100a9575b600080fd5b6100596100c7565b6040516100669190610334565b60405180910390f35b6100776100cd565b005b610093600480360381019061008e919061024c565b610211565b6040516100a091906102d9565b60405180910390f35b6100b1610231565b6040516100be9190610334565b60405180910390f35b60025481565b600160003373ffffffffffffffffffffffffffffffffffffffff1673ffffffffffffffffffffffffffffffffffffffff16815260200190815260200160002060009054906101000a900460ff161561015a576040517f08c379a0000000000000000000000000000000000000000000000000000000008152600401610151906102f4565b60405180910390fd5b600054600254106101a0576040517f08c379a000000000000000000000000000000000000000000000000000000000815260040161019790610314565b60405180910390fd5b60018060003373ffffffffffffffffffffffffffffffffffffffff1673ffffffffffffffffffffffffffffffffffffffff16815260200190815260200160002060006101000a81548160ff0219169083151502179055506002600081548092919061020a906103a8565b9190505550565b60016020528060005260406000206000915054906101000a900460ff1681565b60005481565b60008135905061024681610498565b92915050565b60006020828403121561025e57600080fd5b600061026c84828501610237565b91505092915050565b61027e81610372565b82525050565b600061029160238361034f565b915061029c82610420565b604082019050919050565b60006102b4601c8361034f565b91506102bf8261046f565b602082019050919050565b6102d38161039e565b82525050565b60006020820190506102ee6000830184610275565b92915050565b6000602082019050818103600083015261030d81610284565b9050919050565b6000602082019050818103600083015261032d816102a7565b9050919050565b600060208201905061034960008301846102ca565b92915050565b600082825260208201905092915050565b600061036b8261037e565b9050919050565b60008115159050919050565b600073ffffffffffffffffffffffffffffffffffffffff82169050919050565b6000819050919050565b60006103b38261039e565b91507fffffffffffffffffffffffffffffffffffffffffffffffffffffffffffffffff8214156103e6576103e56103f1565b5b600182019050919050565b7f4e487b7100000000000000000000000000000000000000000000000000000000600052601160045260246000fd5b7f546865206164647265737320697320616c726561647920696e2077686974656c60008201527f6973740000000000000000000000000000000000000000000000000000000000602082015250565b7f57686974656c69737420657863656564656420746865206c696d697400000000600082015250565b6104a181610360565b81146104ac57600080fd5b5056fea2646970667358221220feb3f32fa0275649f8f27186e170169cb5d8f1270b6245fd3b77cbccb0337fdb64736f6c63430008040033",
  "linkReferences": {},
  "deployedLinkReferences": {}
}